:100000000C945C040C9404150C94DD140C94D6161A
:100010000C9490160C944A160C9484040C9484044A
:100020000C9484040C9484040C9484040C94840430
:100030000C9484040C9484040C9484040C94840420
:100040000C9493140C9484040C9484040C948404F1
:100050000C9484040C9484040C9484040C94840400
:100060000C942B150C94840400E1031D00960C32B3
:10007000004B2C71802570E89F00000000000000FC
:1000800000000000008000E01F00000000240027A6
:10009000002A00000000080002010000030407001D
:1000A0000000000000000000000000250028002BD8
:1000B00000000000002300260029000404040404BA
:1000C0000404040202020202020303030303030105
:1000D00002040810204080010204081020010204DC
:1000E000081020BF0002020304030504060A00FEF4
:1000F00007FE07000142029207B3200500620721B4
:1001000007394367A80022079B52275901230D3D59
:1001100042AF4C69A86AA8322500240B3D4237AF94
:100120007AA7B42300250B3D422FAAEEAA2513007F
:10013000260C3D422FA79872956454012705195348
:10014000672808BB42379575012908BB4227975598
:10015000092A0A2D4627A76AA876002B0A2D4637BA
:10016000A3386446112C079B3E4F95002D060D4E7B
:1001700067082E079B3E2FAD042F0B3D421F659451
:10018000BB514600300A3D4237A7DA4E7504310CA8
:100190003D4237CB94514619C521320C3D426FE5A3
:1001A0008CA2CC190D01330C3D42676894B3863A9A
:1001B0002D00340C3D423FCB54A6A1334A00350BF1
:1001C0003D42E746C9CC48A705360B3D4257E68C71
:1001D00092A9D302370C3D4267689433CA35CA00EE
:1001E000380B3D426F659D56D66901390C3D426F13
:1001F00065A95446394A003A0ABB3E2FAD0CD34A92
:10020000003B09BB3E2FAD0C55093C0ABC423FB632
:10021000514619053D081D4A676838043E0BBC422B
:1002200027A38C328A6D003F0A3D426FE536CA74BF
:1002300004400B3D426F65B99295E102410B3D428E
:1002400037A75A8F917500420C3D4267C42AA659C0
:10025000C5A100430C3D426F658D32CA28A70544F5
:100260000D3D4267C42AA698628A4301450C3D426F
:10027000E746198D94514643460D3D42E746198D98
:100280009451461901470C3D426F658D328A3B2DD2
:100290000048093D4227DB63643B4908BB4267C510
:1002A000AE014A0C3D4277679451466594004B0B72
:1002B0003D4227CB54EA14AB1C4C0E3D4227A38C85
:1002C00032CA28A38C86004D0A3D4227EBB592B670
:1002D000034E0A3D4227EBA992DC3A4F093D426F9B
:1002E00065EFB400500D3D4267A4AC87CA28A38CCB
:1002F00000510A453E6F65AF6AC300520B3D42672D
:10030000A4AC872AAB1C530B3D426F650D37D469F3
:1003100001540E3D4267C88C32CA28A38C22005576
:10032000083D4227FB4E0B560B3D4227DBA94C31C3
:10033000E508570A3D4227BB924A7700580A3D42DA
:1003400027EB5457B50E590C3D4227EB5467945197
:1003500046115A0A3D42676894BBD1105B08BB4204
:1003600067C4CE015C0D3D4227A30C33CC30C38C57
:10037000025D08BB4267768E005E071D5237A73AC2
:100380005F060D3E67086006125B2706610A2D4274
:100390006FC334741A01620C3D4227A38C92A9A743
:1003A0005200630A2D426F658D725A00640B3D4204
:1003B0001F6594CC2D950A650A2D426FE531325C9C
:1003C00000660C3D42575679C48C32CA00670C3D1A
:1003D0003A6F689D46463A2D00680B3D4227A38C34
:1003E00092A9ED006908BB422F23D91A6A0BCC3AB7
:1003F0003F635D4B9914006B0C3D4227A38CB24CBC
:10040000B3CA016C07BB4247F61A6D0A2D4247B5C5
:10041000545249076E082D422799DA0E6F092D4272
:100420006F653B2D00700C3D3A27997A2A9551460D
:1004300000710B3D3ACFDC52A98C320A720B2D426F
:1004400027991A65941100730A2D426F65B8E1501F
:1004500000740D3D422FA33C624619C5A8007508E3
:100460002D42273B950A760A2D4227EB54A61C0104
:1004700077092D42275B49750178092D4227A7BAD4
:10048000AA03790B3D3A279B4A65A4D3027A082D2B
:100490004267E8F6107B0BBC42576594348A190911
:1004A0007C063943E7087D0CBC4247A39891CA28D3
:1004B00049007E091D522FAA241300A005006207DF
:1004C000A1073943270D01A20C3D3E370F15534CB0
:1004D00079C408A30B3D4257567967149502A40AC4
:1004E0002D4227A799E2CA01A50D453E27EB54C727
:1004F0002133CA2802A6063943670DA70B453E6F74
:1005000065343B374A0BA8068B5E2705A90C3D4294
:100510006F6595A64A3A2D00AA0AB4466F44A56AAB
:100520003402AB0B2E42B78A29E6986300AC0794DD
:100530004A67E400AD068C4E6704AE0B3D426FE5A2
:1005400091E6D46901AF060D5E6708B0069B52AF15
:100550000BB10B354237A33864467108B208AC4E74
:100560004FC5E608B30AAC4E67A3A4D14800B40651
:10057000125B4F01B50A353E27DB53A98C00B60E3E
:100580003D426F8C34525231C5145300B705094FA8
:1005900027B806123B4F01B907AB4E2FC96ABA0AFA
:1005A000B4464F4599341C01BB0C2E4227E6986394
:1005B0008A294600BC104E3E2F230D33CC6866A41A
:1005C000531C1906BD104E3E2F230D33CC686554C5
:1005D000C38C321ABE0E4D3E47C39C619459A6345B
:1005E000320ABF0A3D4237D319E5D602C00C454254
:1005F0002FC3BCB21E23EB00C10B4542BF5E598F17
:10060000917500C20C454237A7B8B21E23EB00C358
:100610000C45422F2AB9B21E23EB00C40B4542AF52
:10062000A656D663641DC50C454237A7B8B21E2333
:10063000EB00C60B3E4277A4B239466C0EC70D4D97
:100640003A6F658D32CA28A75D03C80E45422F8FC9
:100650008D321A29A38C8600C90E45423F8D8D32FA
:100660001A29A38C8600CA0E4542378E8D321A296C
:10067000A38C8600CB0E4542AF1A1B653452461937
:100680000D01CC09C34227A7155B03CD09C342372F
:10069000A5155B03CE09C342AF1A29B606CF09C31D
:1006A0004227E5155B03D00D3D4267C42A8E54A650
:1006B000381400D10B454237754F95E4D601D20B63
:1006C00045422FC3BCB23B2D00D30A4542BF5ED981
:1006D0009D1600D40B454237A7B8B23B2D00D50A72
:1006E000454237355776A705D60A4542AFA6567616
:1006F000A705D7092D4227A7BAAA03D80B3D426FF9
:10070000C52BCD991600D90A45422FC3DA3B2D00DF
:10071000DA094542BFCCDE6901DB0B454237A78CC5
:10072000B33B2D00DC0A4542AFC6D93B2D00DD0CA2
:100730004542BFCC3AD519651401DE0E3D4227A3D0
:1007400091F2501965941100DF0B3D426F6599CA13
:100750002A2B05E00C45422FC34C6E98864E23E1B0
:100760000B4542BF26374C43A711E20C454237A741
:100770004C6D98864E23E30C454237B5A90DD3D076
:100780006904E40B3D42AFA6364C43A711E50C4586
:100790004237A79C374C43A711E60B2E426F645497
:1007A0008D998700E70B3D3A6F658D72DA3500E869
:1007B0000C45422FC34CAE3C46860BE90B4542BF6D
:1007C00026571E23C305EA0C454237A74CAD3C46CD
:1007D000860BEB0B3D42AFA6561E23C305EC09C3A7
:1007E000422767245B03ED08C342AF86B235EE08AB
:1007F000C342AF2D5B03EF08BB422765D91AF00B4C
:100800003D424743B9B29D1600F10A454237B571E2
:1008100032B51DF20B45422FC34CAE6CA705F30A4F
:100820004542BF2657B6D302F40B454237A74CAD1D
:100830006CA705F50B454237B5A995EDB400F60A4E
:100840003D42AFA656B6D302F7092D463753435360
:1008500011F80A2D426FC895E65000F90B45422F5A
:10086000C34C65A75201FA0A4542BFA6B253A9007C
:10087000FB0B454237A78CB353A900FC0A3D42AF9E
:10088000C6D9A95400FD0C4D3ABFCCA65219E9B403
:1008900000FE0D453A27A391B23D54461901FF0DC4
:1008A0004D3AAFC6D9542A239D160000000004FF1C
:1008B000FF0000001C17B31A11241FBECFEFD8E0B1
:1008C000DEBFCDBF11E0A0E0B1E0E8EFF7E302C08A
:1008D00005900D92A43EB107D9F728E0A4EEB1E04F
:1008E00001C01D92AA30B207E1F714E0CBE5D4E0D5
:1008F00004C02197FE010E94D31BCA35D107C9F756
:100900000E94D4180C94EF1B0C940000662329F06D
:100910006A3019F0862F90E008958FEF9FEF0895C9
:10092000AF92BF92CF92DF92EF92FF920F93CF934D
:10093000DF93EC01DA017901942F9770E1E0F0E0A8
:100940009F01092E01C0220F0A94EAF7522F6E016F
:100950008AE8C80ED11CF601808140E0823018F48C
:10096000422F813049F15D01F8EFAF22E8ADF9ADDA
:1009700028813981D90150968C918A9D90018B9D57
:10098000300D1124620F731FDF01A60FB71F011175
:100990001AC0EA0EFB1E8C91842B85278D93AE1511
:1009A000BF05C9F7DF91CF910F91FF90EF90DF90D6
:1009B000CF90BF90AF90089550E0D5CF440F550F22
:1009C000E114F10479F33C91342B35273C939F5F7C
:1009D0009770E1E0EE1AF1089111F0CF2CAD3DAD2A
:1009E000A20FB31FF6018081823028F4813009F014
:1009F00051E041E0E5CF51E0E3CF80E0089590E0A1
:100A000080E00895CF93DF93CFE4D7E08FAFEAADD6
:100A1000FBAD0190F081E02D83E597E00995EAAD0B
:100A2000FBAD0280F381E02D83E597E0DF91CF916C
:100A300009948091AD079091AE07892BA1F1809127
:100A4000CD078093D9074091CE074093DA07909164
:100A5000D807992341F1913069F49091CF07891714
:100A600014F49093D9078091D0078417E4F480930D
:100A7000DA0708953091CA072091CC07082E000CA0
:100A8000990B622F022E000C770B630F711D37FD3F
:100A90007A95861797071CF4320F3093D9072417DD
:100AA00014F42093DA0708959B01DC011896ED9168
:100AB000FC9141E067E10994833081F028F48130B2
:100AC00099F08230A9F008958730A9F08830C9F0F4
:100AD0008430B1F4809180008F7D03C080918000CC
:100AE0008F7780938000089584B58F7784BD0895B3
:100AF00084B58F7DFBCF8091B0008F778093B0005D
:100B000008958091B0008F7DF9CFCF93DF93282F88
:100B100030E0F901ED56FF4F8491F901E153FF4FA9
:100B2000D491F901E554FF4FC491CC23A1F0811178
:100B30000E945C05EC2FF0E0EE0FFF1FEF54FF4F1B
:100B4000A591B491EC91ED2381E090E009F480E06F
:100B5000DF91CF91089580E090E0FACF1F93CF937B
:100B6000DF93282F30E0F901ED56FF4F8491F90112
:100B7000E153FF4FD491F901E554FF4FC491CC23C9
:100B8000A9F0162F81110E945C05EC2FF0E0EE0F0A
:100B9000FF1FE955FF4FA591B4918FB7F894EC91E1
:100BA000111108C0D095DE23DC938FBFDF91CF9168
:100BB0001F910895DE2BF8CFCF93DF9390E0FC01D7
:100BC000E153FF4F249185549F4FFC01849188236A
:100BD000C9F090E0880F991FFC01E757FF4FA591DE
:100BE000B491FC01E955FF4FC591D49161110DC03D
:100BF0009FB7F8948C91209582238C938881282329
:100C000028839FBFDF91CF910895623051F49FB741
:100C1000F8943C91822F809583238C93E8812E2B2E
:100C2000EFCF8FB7F894EC912E2B2C938FBFEACF98
:100C30003FB7F89480911B0390911C03A0911D0372
:100C4000B0911E0326B5A89B05C02F3F19F0019651
:100C5000A11DB11D3FBFBA2FA92F982F8827BC0116
:100C6000CD01620F711D811D911D42E0660F771F3E
:100C7000881F991F4A95D1F708958F929F92AF923E
:100C8000BF92CF92DF92EF92FF926B017C010E94A4
:100C900018064B015C01C114D104E104F104B9F060
:100CA0000E941806681979098A099B09683E7340F1
:100CB0008105910580F321E0C21AD108E108F1080D
:100CC00088EE880E83E0981EA11CB11CE4CFFF9033
:100CD000EF90DF90CF90BF90AF909F908F9008954E
:100CE0000895AF92BF92CF92DF92EF92FF920F934F
:100CF0001F93CF93DF936C017B018B01040F151FB2
:100D0000EB015E01AE18BF08C017D10759F0699119
:100D1000D601ED91FC910190F081E02DC60109957D
:100D2000892B79F7C501DF91CF911F910F91FF902A
:100D3000EF90DF90CF90BF90AF9008952091B902CF
:100D4000260F3327331F21323105ECF42091DF02C7
:100D5000FC0190E080E0243069F082E00895A091E9
:100D6000B9022191AC0149565D4FA40FB52FB11DB9
:100D70002C930196861798F38091B902680F6093BF
:100D8000B90280E0089581E008951092DF0281E0C9
:100D90008093E1021092E00261E082E10E94AE05E0
:100DA00061E083E10E94AE05E9EBF0E080818E7F97
:100DB000808380818D7F808388E48093B80085E480
:100DC0008093BC000895CF93DF9391E090939602B7
:100DD0008823B9F0C091B800D091BA008091BC00CE
:100DE0008A7B8093BC0060E082E10E94AE0560E0F7
:100DF00083E10E94AE050E94C506D093BA00C0935D
:100E0000B800DF91CF910895089508950895E09175
:100E10008E0280918D02E81730F4F0E0E359FD4F27
:100E2000808190E008958FEF9FEF089590918E025A
:100E300080918D022FEF3FEF981748F4E92FF0E0F3
:100E4000E359FD4F208130E09F5F90938E02C901EE
:100E5000089580918D0290918E02891B990B0895BF
:100E6000CF92DF92EF92FF920F931F93CF93DF9376
:100E70007C01CB018A0120916C02222389F0EB01D5
:100E80006B01C40ED51ECC15DD0569F06991D70143
:100E9000ED91FC910190F081E02DC7010995F3CF10
:100EA000642F0E949E06C801DF91CF911F910F9180
:100EB000FF90EF90DF90CF900895CF93DF931F9234
:100EC000CDB7DEB7698320916C022223F9F020911F
:100ED0008F02203258F021E030E0FC01338322837E
:100EE00090E080E00F90DF91CF9108958091900283
:100EF000E82FF0E0E45BFD4F998190838F5F809352
:100F0000900280938F0281E090E0ECCF61E0CE010F
:100F100001960E949E06F7CFDC011A96ED91FC9196
:100F200030E020E00994DC011496ED91FC9130E072
:100F300020E040E060E10994DC011696ED91FC911F
:100F400030E020E040E069E10994DC011696ED9183
:100F5000FC9130E020E040E068E109949A01DC0176
:100F60001696ED91FC91462F67E10994EF92FF925E
:100F70000F931F93CF93DF931F92CDB7DEB77C0102
:100F80008B01D8016C91673129F150F46531A0F4DF
:100F90000F90DF91CF911F910F91FF90EF900895E7
:100FA0006A3118F16E3FA1F7F8014181498369E286
:100FB000C7010E948C070BC0F80141814983D7010A
:100FC0001696ED91FC9130E020E0C70109950E5F87
:100FD0001F4FD7CFF80181818983AE014F5F5F4FEB
:100FE00061E0C7010E94AE07F2CF0F5F1F4FD7012C
:100FF0001696ED91FC9130E020E040E0C7010995A4
:10100000C0CF462FDC011696ED91FC9130E020E038
:1010100066E10994462FDC011696ED91FC9130E0D3
:1010200020E065E10994EF92FF920F931F93CF9315
:10103000DF93EC01042F79016D3009F446C050F4C0
:101040006B30C9F1693009F49FC06A3009F465C09A
:1010500080E05CC06E3009F44BC06F3099F70E949D
:10106000A507F7011381110F110F110F6C89160FCE
:1010700060E4CE010E940A08612F62956F70606182
:10108000CE010E940A08612F6F70CE010E940108F4
:10109000F7016481606BCE010E940108F701408175
:1010A00051816281660F660F660FCE010E94AE0706
:1010B0000150A1F727C06EE171E0442311F069E10E
:1010C00071E0CE010E94B60720C0411109C062E163
:1010D00071E00E94B607E881F98182898C8B15C086
:1010E0006BE071E00E94B607E881F9818389F6CF51
:1010F0000E94A50761E8CE010E940A08602FCE0178
:101100000E940108CE010E949C0781E0DF91CF91EF
:101110001F910F91FF90EF900895EA85FB8530E0D5
:1011200020E040E068E2CE010995EE81FF8130E0E9
:1011300020E040E064E1CE01099541E06BE4CE019E
:101140000E948C07E881F981448169E2CE010E9406
:101150008C0740E06BE4CE010E948C07E881F981A6
:10116000448169E2CE010E948C0741E06BE4CE012C
:101170000E948C07E881F981458169E2CE010E94D5
:101180008C0763E271E09DCF88E591E099838883C5
:1011900082E0A4CFDC011896ED91FC9130E020E0D4
:1011A00040E069E10994DC011896ED91FC9130E092
:1011B00020E040E068E10994CF93DF931F92CDB720
:1011C000DEB76983BE016F5F7F4F0E9454050F90A9
:1011D000DF91CF910895EF92FF921F93CF93DF930A
:1011E000EC01162F7A010E94D30860E4CE010E9420
:1011F000DC08E885F9859701412F67E1CE01099563
:10120000CE01DF91CF911F91FF90EF900C94CA080F
:10121000EF92FF921F93CF93DF93EC01142F79018C
:10122000663181F138F4643109F44BC0653179F0ED
:1012300080E022C06831C9F150F16931C9F780916D
:101240004B02882391F1CE010E94CA082EC08091E2
:101250004B02882319F0CE010E94CA08CE010E94D9
:10126000D30860E0CE010E94DC08612FCE010E940D
:10127000DC0881E080934B02DF91CF911F91FF90BA
:10128000EF900895642F0E94DC0881E0F5CF8091F3
:101290004B02882319F0CE010E94CA08A701193118
:1012A00038F4612FCE010E94EB0810924B02EDCF73
:1012B00068E1CE010E94EB08185188E1E80EF11CAC
:1012C000EDCF8E898F3F11F488E78E8BE885F98505
:1012D0009701412F64E1CE01DF91CF911F91FF90E3
:1012E000EF9009940F93FC01E05CFF4F0190F081B7
:1012F000E02D4E1B5F0BDC01D496ED91FC9109951E
:101300000F910895CF93DF93FC01A081B18182AD4D
:1013100090E09C0143E0220F331F4A95E1F737AF7D
:1013200026AF50962C91509748E0249F90011124AD
:1013300035AF24AF23AD30E0B90153E0660F771F1E
:101340005A95E1F7EF01C05CDF4F798368835196CE
:101350004C915197E901C80FD91F50E04C175D0718
:1013600018F4CA01821B930BEF01CE5BDF4F798328
:101370006883229623E0880F991F2A95E1F7860F4C
:10138000971F99838883229654968D919C915597A7
:1013900099838883E85BFF4F56968D919C9191834A
:1013A0008083DF91CF9108950F931F93FC01E25B3F
:1013B000FF4F0190F081E02DDC01A05BBF4F0D904D
:1013C000BC91A02D4A175B0740F4E017F10748F0E5
:1013D0000417150730F080E019C0E017F107C0F3DB
:1013E000FACFFC01E65BFF4F40815181845B9F4F48
:1013F000FC01808191816817790758F481E04217D8
:10140000530720F081E02617370728F71F910F9127
:10141000089542175307B0F3DECF2F923F924F92B9
:101420005F926F927F928F929F92AF92BF92CF9274
:10143000DF92EF92FF920F931F93CF93DF93CDB77D
:10144000DEB72A970FB6F894DEBF0FBECDBF9A87DE
:101450008987865B9F4F9A838983FC011182108262
:10146000E985FA85EA5BFF4F4080518029853A85FE
:10147000245B3F4F3C832B83F90151824082E985F5
:10148000FA85EE5BFF4F2080318029853A85225B0B
:101490003F4F3E832D83F90131822082E985FA8511
:1014A000EC5BFF4F6080718029853A85205B3F4F60
:1014B00038872F83F90171826082E985FA85E85ABD
:1014C000FF4FE080F180E985FA85EC5AFF4FA0805C
:1014D000B180E985FA85EA5AFF4FC080D180E9855D
:1014E000FA85EE5AFF4F8080918087019501A60111
:1014F000B40189859A850E94D40929853A852C579B
:101500003F4F3A87298781111BC0F90110822A9623
:101510000FB6F894DEBF0FBECDBFDF91CF911F9104
:101520000F91FF90EF90DF90CF90BF90AF909F9082
:101530008F907F906F905F904F903F902F90089585
:1015400081E0E985FA8580838114910421F0E981A5
:10155000FA8191828082A414B50420F4EB81FC818D
:10156000B182A0822C143D0420F4ED81FE81D18251
:10157000C082E614F70458F6EF81F885F182E08224
:10158000C6CF0F93CF93DF93E02FDC01AC57BF4F53
:10159000FC91FF2309F460C02115310509F45CC0FA
:1015A0002230310538F0023009F04AC06F5F7F4FBA
:1015B000621B730B0E2F0170E0FD52C0FC01E25B59
:1015C000FF4F0190F081E02D4E175F0708F444C0F3
:1015D000FC01E05BFF4F0190F081E02D4E175F07AB
:1015E000D8F5FC01E45BFF4F0190F081E02DDC01B8
:1015F000A65BBF4F0D90BC91A02D260F371F26175D
:10160000370738F56E177F0718F59F01215031090C
:10161000A217B30708F56A177B0708F4BD012E1758
:101620003F0708F4F901E61BF70BEC01AEA9BFA9CF
:1016300014960D90BC91A02D9F01FD0109950CC041
:10164000033009F0B7CF4F5F5F4F421B530BB2CF50
:10165000BD016E177F07E0F2DF91CF910F910895E2
:10166000FC01E65BFF4F0190F081E02D6E177F07D4
:1016700098F3FC01E45BFF4F0190F081E02D6E17C1
:101680007F0750F7FC01E05BFF4F0190F081E02DF8
:10169000DC01A25BBF4F0D90BC91A02D240F351F24
:1016A00024173507A8F44E175F0788F49F012150CF
:1016B0003109A217B30780F64A175B0708F4AD019A
:1016C0002E173F0708F4F901E41BF50BAECFAD016F
:1016D0004E175F0708F6EDCF213069F038F0223061
:1016E00079F0840F911D47FD9A950895860F911DFD
:1016F00067FD9A950895841B910947FD9395089578
:10170000861B910967FD93950895213069F038F0A3
:10171000223079F0861B910967FD93950895840F17
:10172000911D47FD9A950895860F911D67FD9A9525
:101730000895841B910947FD939508953F924F9218
:101740005F926F927F928F929F92AF92BF92CF9251
:10175000DF92EF92FF920F931F93CF93DF937C0161
:10176000162F442EEC01C25ADF4F5E806F806C0151
:101770008AE8C80ED11C78847518312E711608F4C9
:10178000372C8C809D800E85202F462D652D8A81DB
:101790009B810E946C0B5C01202F462D652DC4019E
:1017A0000E94850BAC01442079F08C85F601808382
:1017B000232D30E0B501C7010E94C10A171548F07A
:1017C00017196394512CD7CF8B858111F7CF8D8555
:1017D000EDCF150D1E836F82DF91CF911F910F9179
:1017E000FF90EF90DF90CF90BF90AF909F908F9041
:1017F0007F906F905F904F903F900895DC011A9614
:101800004C911A97ED91FC911197249130E0042EA0
:1018100002C0359527950A94E2F7842F860F883009
:1018200068F031961196FC93EE93E49198E0941B46
:1018300001C0EE0F9A95EAF72E2B88501A968C93DA
:101840008FEF9FEF01C0880F6A95EAF7809582239A
:101850000895FC01E60FF11D849190E0982F8827F0
:101860003196E4918E0F911D0895E3EEF0E0E4913E
:10187000E093C007E4EEF0E0E491E093C107E5EE09
:10188000F0E0E491E093C207E6EEF0E0E491E0934B
:10189000C307E7EEF0E0E491E093C407E8EEF0E080
:1018A000E491E093C507E9EEF0E0E491E093C60728
:1018B000EAEEF0E0E491E093C707EBEEF0E0E491AC
:1018C000E093C807ECEEF0E0E491E093C907EDEE99
:1018D000F0E0E491E093CA07EEEEF0E0E491E093EB
:1018E000CB07EFEEF0E0E491E093CC07E0EFF0E01F
:1018F000E491E093CD07E1EFF0E0E491E093CE07CF
:10190000E2EFF0E0E491E093CF07E3EFF0E0E49161
:10191000E093D00761E183EE90E00E94290C909360
:10192000D2078093D10763E183EE90E00E94290CF7
:101930009093D4078093D30765E183EE90E00E94F3
:10194000290C9093D6078093D50708954F925F9204
:101950006F927F928F929F92AF92BF92CF92DF92BF
:10196000EF92FF920F931F93CF93DF93EC016B01E4
:101970008A017901FC01E459FF4F8081813009F42B
:101980004BC008F43EC0823009F451C0833009F4E2
:1019900059C0FE01E05AFF4FD182C08232961183B6
:1019A000008338978081918147962FEFE216F104EA
:1019B00011F008F0F2C0E1E6EE16F10408F44DC0B3
:1019C000FE01E058FF4F20813181820F931F9C015F
:1019D0002F5F3F4FF9014491411148C090E080E0F2
:1019E000DF91CF911F910F91FF90EF90DF90CF90FB
:1019F000BF90AF909F908F907F906F905F904F902F
:101A00000895FE01E45AFF4F0190F081E02DCE01D0
:101A10000995080F191FBDCFFE01E45AFF4F019031
:101A2000F081E02DCE010995C81AD90AB2CFFE0186
:101A3000E45AFF4F0190F081E02DCE010995081B7B
:101A4000190BA7CFFE01E45AFF4F0190F081E02D62
:101A5000CE010995C80ED91E9CCFF1E4EF16F10412
:101A600008F4B5CFFE01E258FF4FADCFFC01449121
:101A70004E151F0409F08CC00296009709F4AECFF2
:101A80007E01FEE5EF0EF11CF70191838083128643
:101A900073966081C7010E94FE0BF70180877496E0
:101AA0006081C7010E94FE0B982EF70181875E01BD
:101AB000FAE8AF0EB11CF5019081F701948781E03F
:101AC000911180E0F7018587FE01ED58FF4FC0803E
:101AD0006C2DC7010E94FE0B582EFE01EC58FF4FE3
:101AE000D0806D2DC7010E94FE0B482EFE01EB58E1
:101AF000FF4F1081612FC7010E94FE0B9FEF910FD6
:101B000001E010E0980101C0220F9A95EAF7882EB3
:101B1000821AF701608416140CF0ADC0CA94C80193
:101B200001C0880FCA94EAF7581A7684490CDA94EF
:101B3000A80101C0440FDA94EAF7F42FF4194F2EEC
:101B4000272D4F2F652DF701828193810E946C0B09
:101B50006C01F70193838283272D442D652D8481A9
:101B600095810E94850BF70195838483F1E07F16B0
:101B700009F485C07F1608F43FC022E0721609F40C
:101B80008DC0E3E07E1609F49DC0BC0196013EC005
:101B9000F9012491820F911D1ACFFE01EE57FF4FDC
:101BA00000811181080F191F680160E0C6010E94C1
:101BB000290C080F191F62E0C6010E94290CF4E0ED
:101BC000CF0ED11C8E159F0580F3F801849190E013
:101BD000982F88273196E4918E2B009709F4FECE3A
:101BE000E816F90619F4C801039647CFF8013296B2
:101BF000E4910E0F111DE9CF9601260D311D67FCF2
:101C00003A95BC01690D711D97FC7A958B01AC0169
:101C1000B601CE010E94D409882369F1F70116822A
:101C200017828E0101591F4F6E01F0E7CF0ED11CB4
:101C3000F8016081C7010E94FE0B682EF6016081E9
:101C4000C7010E94FE0B782E40E0662DCE010E9457
:101C50009E0B41E0672DCE010E949E0B61E0C70103
:101C60000E94FE0B8111F0CFF7018781891504F3E3
:101C70008485F5018083882D880C990BB1CE0919D4
:101C8000110997FC139596012F5F3F4FBC01660D1C
:101C9000711D67FC7A95C00ED11EB8CFA8014619F8
:101CA000510967FC539596012F5F3F4F09191109A0
:101CB00097FC1395BC016F5F7F4F800F911FC40E7F
:101CC000D51EA4CF9601290D311D97FC3A95061912
:101CD000110967FC1395BC016F5F7F4F800F911F47
:101CE00095CFCF92DF92EF92FF920F931F93CF93F6
:101CF000DF938C0110926B077B01D12CC12CCAE0C1
:101D0000D0E0F70161917F01E0915507F09156070E
:101D100083E597E009958F3F980719F18E3F2FEFE4
:101D2000920779F39C01A801BE0183E597E00E9428
:101D3000A60C2091BF07213059F038F0223059F01D
:101D4000233061F0C80ED91EDCCFC80FD91FFACFDF
:101D5000080F191FF7CFC81BD90BF4CF081B190B9D
:101D6000F1CFC601DF91CF911F910F91FF90EF90BE
:101D7000DF90CF900895AF92BF92CF92DF92EF9213
:101D8000FF920F931F93CF93DF9300D000D01F9249
:101D9000CDB7DEB78C01DC01DA96AC90DA97DB9632
:101DA000EC90DB97ED91FC91B188FE2CD12CC12CED
:101DB000D801ED91FC9111978089D8962D913C9195
:101DC0001C82FD828B83B8E08B9FC00111248C9D07
:101DD000A0018D9D500D9C9D500D1124240F351F89
:101DE0003A832983D8011496ED91FC919E012F5FCF
:101DF0003F4F41E06FE0C8010995F3948F2D8E1994
:101E00008A1528F4BFEFCB1ADB0AFB1488F20F9077
:101E10000F900F900F900F90DF91CF911F910F9126
:101E2000FF90EF90DF90CF90BF90AF900895CF924A
:101E3000DF92EF92FF920F931F93CF93DF93EC010A
:101E4000962F683109F44BC0B901993130F49431BF
:101E5000C9F0973189F080E006C0993109F461C07A
:101E60009032C9F781E0DF91CF911F910F91FF90E0
:101E7000EF90DF90CF90089550E08FE193E00E94C3
:101E80003007F0CF8C859D85AE85BF85892B8A2B49
:101E90008B2B71F4E881F981A585B0E020EA36E862
:101EA00041E050E00E94B41B6C877D878E879F873E
:101EB00010928E0210928D021092900210928F0258
:101EC0000E94C50684E097E09093B8028093B70221
:101ED00085E097E09093BC028093BB02C3CF2C8532
:101EE0003D854E855F8560E074E284EF90E00E945E
:101EF000731B205131094109510956954795379572
:101F000027952093B8008E8990E09595879591E06C
:101F100090936C0280934A021092900210928F026A
:101F2000A1CFD0918F02D13208F093C0C0914A0264
:101F30000E9418066B017C018091DF02811164C050
:101F400082E08093DF0281E08093E1028FEF809353
:101F5000DE0210920303D0930203ACE4B2E0E2EE9F
:101F6000F2E080E0D8137CC0109204038091040357
:101F7000CC0FC82BC09304038091E002813009F09C
:101F800073C01092E0020E9418066B017C018091E0
:101F900004038093BB008091920290919302A091E0
:101FA0009402B0919502892B8A2B8B2B99F00E9479
:101FB00018060091920210919302209194023091A0
:101FC00095026C197D098E099F09061717072807C6
:101FD0003907D8F18091BC0083FDD9CF85EC80937F
:101FE000BC000E9418066B017C018091DF028230E8
:101FF000E9F18091DE028F3F61F18091DE02803253
:1020000041F18091DE0225C080919202909193026D
:10201000A0919402B0919502892B8A2B8B2B09F405
:102020008BCF0E941806009192021091930220918A
:102030009402309195026C197D098E099F0906174B
:1020400017072807390708F077CF809191020E947F
:10205000E3061092900210928F0210926C0202CF4F
:102060009D9191938F5F7ECF85EEB9CF8091920243
:1020700090919302A0919402B0919502892B8A2BA2
:102080008B2B09F4B2CF0E94180600919202109196
:10209000930220919402309195026C197D098E096A
:1020A0009F09061717072807390708F09ECFCDCFDD
:1020B0000F931F93CF93DF938C01C62F642FCC32E5
:1020C000E8F4CA3208F041C0C83271F1C93209F4EB
:1020D00042C080E0C034D0F1CF73F801EC0FF11DA5
:1020E000868D8F3F91F1C031E0F00E94850521E09F
:1020F000892B09F420E0F801218F27C0CD3289F126
:1021000040F384EB8C0F823020F7CF73C00FD12FB8
:10211000D11D8E8D411133C061E00E94DC0560E06D
:102120008E8D0E94AE0511C0025E1F4FD0E0F801F7
:1021300081918F018F3F31F061E0D03108F062E092
:102140000E94DC05DF5FD63191F781E0DF91CF910E
:102150001F910F91089570E090E080E00E943D068D
:10216000F4CF85E090E0433010F082E090E0880FFB
:10217000991F880F991F05970197F1F7E6CF62E045
:102180000E94DC05E2CFEDE6F0E0883030F0EBE6CF
:10219000F0E08E3010F0ECE6F0E04081282F30E0E7
:1021A000883068F421E030E0B90102C0660F771F83
:1021B0008A95E2F7CB0180958423808308958E3041
:1021C00048F42850310981E090E001C0880F2A9539
:1021D000EAF7F1CF2E503109F6CF2091680094E054
:1021E000883048F031E08E3008F430E091E001C0F2
:1021F000990F3A95EAF7922B90936800EDE6F0E09C
:10220000883030F0EBE6F0E08E3010F0ECE6F0E0F5
:102210004081282F30E0883048F491E001C0990FC8
:102220008A95EAF7892F842B808308958E3040F4B5
:102230002850310981E001C0880F2A95EAF7F3CFD1
:102240002E503109F7CFDC011E96ED91FC911F97BE
:1022500055968C919081611104C08095892380836B
:102260000895892BFCCF20E001972FEF8F3F920735
:10227000D9F70895EF92FF921F93CF93DF93C09108
:102280004D07D0914E07EC85FD8580819C8989237F
:1022900091E009F090E088898170981709F46AC08C
:1022A0008B89863110F40E94C3108E899F89890F13
:1022B0009927991F0E943311EE24E394F12C10E02A
:1022C0009889987181E009F480E029893A8902C0EF
:1022D000369527958A95E2F78F892E153F0589F067
:1022E000EC85FD8590812C89922339F01E2990E0A0
:1022F0000E943311EE0CFF1CE3CF9E2D9095192305
:10230000F6CF992319F090E00E9433118F8990E065
:102310000E9433118B89863110F40E94ED10888958
:1023200080FF0FC0869583708B5F21E030E0A901AC
:1023300002C0440F551F8A95E2F7CA0181501095DB
:102340001823809149022091480290E001968F73F2
:1023500099272817190671F0E0914902F0E0E85F2B
:10236000FD4F10838091490290E001968F73992769
:1023700080934902DF91CF911F91FF90EF900895D4
:102380009091480280914902981751F0E0914802DB
:10239000F0E0E85FFD4F8081082E000C990B089556
:1023A0008FEF9FEF08958FB7F89410924902109223
:1023B00048028FBF0895809149022091480290E021
:1023C000805C9F4F821B910960E470E00E945F1B5C
:1023D00008959091480280914902981789F0E09100
:1023E0004802F0E0E85FFD4F80812091480230E034
:1023F0002F5F3F4F2F7333272093480290E00895BB
:102400008FEF9FEF0895829590E09C013595279579
:10241000359527952373880F991F880F991F8C7CFA
:10242000282B30E0C901959587958575220F331FBC
:102430002A7A822B0895CF92DF92EF92FF920F9328
:102440001F93CF93DF936C01EB017B01E40EF51E2C
:1024500010E000E0CE15DF0561F06991D601ED9145
:10246000FC910190F081E02DC6010995080F191F1C
:10247000F1CFC801DF91CF911F910F91FF90EF90A5
:10248000DF90CF900895CF92DF92EF92FF920F935B
:102490001F93CF93DF93EC016C0124E0C20ED11C9B
:1024A000FC01E057FF4F0190F081E02DC601099536
:1024B0008E3FEFEF9E07D8F48E010C561F4FF801A8
:1024C000408151817E01F2E9EF0EF11CF70160813C
:1024D00071819C01C6010E94A60CC059DF4F288162
:1024E0002130C1F078F02230B9F02330E9F081E0FA
:1024F00090E0DF91CF911F910F91FF90EF90DF90CF
:10250000CF900895F70120813181820F931F91832D
:102510008083EDCFF801F7CFF70120813181281BAF
:10252000390B31832083E3CFF801F7CFDC01ED9144
:10253000FD918081ED91FD919081ED91FD916C91E6
:1025400063708E2309F064609F2309F06860E3EBF9
:10255000F2E1E60FF11D659565956D936D917D91A5
:102560008D919D91099423C01AC012C016C010C04D
:102570001EC009C014C013C006C019C009C00DC0D8
:1025800007C00DC014C062507040804090400BC026
:10259000615070408040904006C06E5F01C06F5F28
:1025A0007F4F8F4F9F4F9E938E937E936E93089590
:1025B00080912B0790912C070C94961280912D07F7
:1025C00090912E070C949612089590E080E0089563
:1025D000DF92EF92FF920F931F93CF93DF93EC0163
:1025E0004889842F8695837090E09C012B5F3F4F34
:1025F00001E010E0022E01C0000F0A94EAF701503A
:10260000062310E0E42FE871D9F070E050E0049662
:102610007817190609F034F4F62FF1705F276695E4
:102620007F5FF6CF81E090E0E83011F090E080E04D
:10263000852702C0880F991F2A95E2F7082B192BCE
:1026400040FF02C000951095DFB6F894688961706C
:10265000CE010E942311888D90E00E943311EE2458
:10266000E394F12C89899A898E159F05A9F0EE854E
:10267000FF858D8998012E213F219081232B49F0E0
:10268000892B8083888D90E00E943311EE0CFF1C13
:10269000E9CF80958923F5CF688960956170CE0177
:1026A0000E942311DFBE888D90E00E94331188893B
:1026B00085FF04C0888D90E00E94331181E090E096
:1026C000DF91CF911F910F91FF90EF90DF900895D0
:1026D0008F929F92AF92BF920F931F93CF93DF93EE
:1026E000CDB7DEB7A1970FB6F894DEBF0FBECDBF52
:1026F00019A2423008F44AE08E010F5D1F4F842E6C
:10270000912CB12CA12CA50194010E94731BE62FE2
:10271000B901CA01EA3044F5E05DD801EE938D01BC
:10272000232B242B252B79F790E080E0109769F07C
:10273000FD0101900020E9F73197AF014A1B5B0BC7
:10274000BD018FE497E00E941B12A1960FB6F8948A
:10275000DEBF0FBECDBFDF91CF911F910F91BF9014
:10276000AF909F908F900895E95CD7CF85ED8093CF
:10277000BC008091920290919302A0919402B0913A
:1027800095020796A11DB11D23E0B695A7959795D3
:1027900087952A95D1F72091BC0024FD03C01092A3
:1027A000DF02089540919202509193026091940249
:1027B00070919502452B462B472B69F30097A10595
:1027C000B10541F02AE22A95F1F700C00197A1096D
:1027D000B109E1CF809191020C94E306FC01A08144
:1027E000B18150962C9182AD38E0839FC0011124B5
:1027F000289FA001299F500D112470E060E080AD5A
:1028000091AD0C94E81BCF92DF92EF92FF921F9351
:10281000CF93DF936C01162F83E597E00E94EE13B0
:102820008091AD079091AE07835E904051F083EEAA
:1028300090E09093AE078093AD070E94350C0E9404
:10284000190586E894E0909356078093550766EA49
:1028500071E080E190E00E94710E8091AD0790914F
:10286000AE07835E904051F083EE90E09093AE0708
:102870008093AD070E94350C0E9419058AE090E014
:102880009093E2078093E107C8E2D0E0D093E40799
:10289000C093E30740E150E06AEB71E08FE497E01A
:1028A0000E941B128EE690E09093E2078093E1076E
:1028B000D093E407C093E3070D2C000CEE08FF084B
:1028C0004AE0C701B601F7FE0DC06DE28FE497E064
:1028D0000E94431266277727CB016C197D098E0968
:1028E0009F094AE00E94681386E894E09093560797
:1028F000809355076BEC71E0111102C066ED71E039
:1029000082E390E00E94710E83E597E00E94BB0E87
:1029100083E597E0DF91CF911F91FF90EF90DF90DB
:10292000CF900C9493071F920F920FB60F92112421
:102930002F933F938F939F93AF93BF9380911703F0
:1029400090911803A0911903B0911A0330911603C6
:1029500023E0230F2D3758F50196A11DB11D2093BB
:1029600016038093170390931803A0931903B09351
:102970001A0380911B0390911C03A0911D03B09139
:102980001E030196A11DB11D80931B0390931C0390
:10299000A0931D03B0931E03BF91AF919F918F91A0
:1029A0003F912F910F900FBE0F901F90189526E822
:1029B000230F0296A11DB11DD2CF1F920F920FB609
:1029C0000F9211242F933F934F935F936F937F93B5
:1029D0008F939F93AF93BF93EF93FF93E091090180
:1029E000F0910A010995FF91EF91BF91AF919F91ED
:1029F0008F917F916F915F914F913F912F910F90A8
:102A00000FBE0F901F9018951F920F920FB60F9246
:102A100011242F933F934F935F936F937F938F93E3
:102A20009F93AF93BF93EF93FF93E0910701F091D2
:102A300008010995FF91EF91BF91AF919F918F91FF
:102A40007F916F915F914F913F912F910F900FBEAA
:102A50000F901F9018951F920F920FB60F9211248E
:102A60002F933F934F935F936F937F938F939F9396
:102A7000AF93BF93EF93FF938091B900887F803627
:102A800009F44AC0F0F5883209F4A7C018F580317E
:102A900009F49BC0B8F4882309F4F9C0883009F41C
:102AA00094C0FF91EF91BF91AF919F918F917F91D2
:102AB0006F915F914F913F912F910F900FBE0F90AB
:102AC0001F901895883109F488C0803251F780939F
:102AD000DE0214C0803409F49DC040F48033B9F3A1
:102AE0008833F9F68093DE0285ECB0C0803509F4B6
:102AF00085C0883509F496C0883499F60E94B613CB
:102B0000D0CF883909F48CC038F5883729F050F4D3
:102B1000883611F0803729F683E08093DF02109227
:102B2000DD0257C0883809F47BC0803919F080383D
:102B300009F0B7CF8091DD02803208F071C0E091DA
:102B4000DD0281E08E0F8093DD028091BB00F0E01A
:102B5000E354FD4F80833DC0803B39F0E0F4803A80
:102B600009F479C0883A09F09CCF84E08093DF02B1
:102B70001092BA021092B902E091B702F091B80235
:102B800009958091B90281110FC081E08093B9024B
:102B90001092970209C0803C09F4A6CF883C09F442
:102BA000A3CF883B09F07DCFE091BA0281E08E0F80
:102BB0008093BA02F0E0E956FD4F80818093BB001C
:102BC0009091BA028091B90229C080910403809348
:102BD000BB0085EC8093BC0064CF9091030380918F
:102BE0000203981758F5E091030381E08E0F80935C
:102BF0000303F0E0EE51FD4F8081E9CFE091030344
:102C000081E08E0F809303038091BB00F0E0EE51D2
:102C1000FD4F808390910303809102039817C8F2BF
:102C200085E8D8CFE091030381E08E0F8093030302
:102C30008091BB00F0E0EE51FD4F80838091E10276
:102C400081115CCF81E08093E00284EA8093BC0034
:102C50001092DF0226CF85EC8093BC001092DF0239
:102C60008091DD02803230F4E091DD02F0E0E35447
:102C7000FD4F10826091DD0270E0E091BB02F091A7
:102C8000BC028DEB92E009951092DD020ACF109202
:102C9000DE0234CF1F920F920FB60F9211242F93A2
:102CA0003F934F935F936F937F938F939F93AF93D4
:102CB000BF93CF93EF93FF9389B190916D008923D8
:102CC00080934C0780914B0790914C078927809304
:102CD0004A0780914C0780934B07C0E080914907D9
:102CE000C81760F4EC2FF0E0EE0FFF1FED5BF84F1C
:102CF0000190F081E02D0995CF5FF0CFFF91EF912A
:102D0000CF91BF91AF919F918F917F916F915F9183
:102D10004F913F912F910F900FBE0F901F901895DC
:102D20001F920F920FB60F9211242F933F934F9340
:102D30005F936F937F938F939F93AF93BF93CF9343
:102D4000EF93FF9386B190916C00892380934207A3
:102D50008091410790914207892780934007809195
:102D6000420780934107C0E080913F07C81760F495
:102D7000EC2FF0E0EE0FFF1FE75CF84F0190F081C1
:102D8000E02D0995CF5FF0CFFF91EF91CF91BF91EB
:102D9000AF919F918F917F916F915F914F913F91F3
:102DA0002F910F900FBE0F901F9018951F920F92AA
:102DB0000FB60F9211242F933F934F935F936F930E
:102DC0007F938F939F93AF93BF93CF93EF93FF9393
:102DD00083B190916B0089238093380780913707E6
:102DE0009091380789278093360780913807809320
:102DF0003707C0E080913507C81760F4EC2FF0E08A
:102E0000EE0FFF1FE15DF84F0190F081E02D099575
:102E1000CF5FF0CFFF91EF91CF91BF91AF919F9195
:102E20008F917F916F915F914F913F912F910F9073
:102E30000FBE0F901F901895CF93DF93109222032F
:102E40001092210388EE93E0A0E0B0E0809323038A
:102E500090932403A0932503B093260324E731E045
:102E60003093200320931F031092F4071092F3076E
:102E70008093F5079093F607A093F707B093F807B0
:102E800082E991E09093F2078093F10760E086E099
:102E90000E94DC058091010880FD04C061E086E0AD
:102EA0000E94AE0586E08093040885ED90E0FC0169
:102EB000249120930508C1ECD0E0FE013491E32F6A
:102EC000F0E0EE0FFF1FEF54FF4F459154915093E8
:102ED000FE074093FD07FC0184918093060882174A
:102EE00041F061E086E00E94DC0561E086E00E943E
:102EF000AE05FE01C491EC2FF0E0EE0FFF1FE95587
:102F0000FF4F85919491909300088093FF078091E3
:102F10004307909144078A53914111F180914507ED
:102F2000909146078A539141D9F08091470790913B
:102F300048078A539141A1F080914907833080F47A
:102F4000E0914907F0E0EE0FFF1FED5BF84F8AE3D9
:102F500091E191838083809149078F5F8093490736
:102F600081EF97E090934E0780934D0762E082E0F7
:102F70000E94DC0562E083E00E94DC05EDEBF0E0FE
:102F8000E491F0E0EE0FFF1FEF54FF4FA591B491D5
:102F9000B093E607A093E507E1EDF0E0449140939C
:102FA000E907EEEBF0E0E491F0E0EE0FFF1FEF54E5
:102FB000FF4FC591D491D093E807C093E707E2EDA6
:102FC000F0E0E491E093EA071092EC071092ED072D
:102FD0001092EE071092EF072BE33FE1C901019732
:102FE000F1F79C91842F892391E009F490E0888186
:102FF000E82309F0926025EE37E09093EB073093D9
:103000002C0720932B0788ED92E190930801809381
:103010000701809169008C7F816080936900E89A44
:1030200081E08093F00730932E0720932D078EEDDB
:1030300092E190930A018093090180916900837F56
:10304000846080936900E99A82E08093F00710928F
:1030500052071092510786E894E09093E00780931E
:10306000DF071092E2071092E1071092E407109236
:10307000E30710926B0786E891E0909350078093E6
:103080004F0710925407109253071092680710923E
:103090005F071092600710926107109262078FEF2E
:1030A0008093690780936D07E1E7F7E087E897E091
:1030B000CFEFC1938E179F07E1F783E198E09093DC
:1030C00058078093570788E099E090935A078093B8
:1030D000590787E19FE090935C0780935B0788E541
:1030E00090E190935E0780935D0730E020E040E040
:1030F00069E083E597E00E9413081092AE071092F2
:10310000AD0780E994E090938807809387078BE26E
:1031100093E090938C0780938B0788E080938D07D2
:1031200010928E071092BC071092DC071092D807FD
:1031300081E08093DD078093DE0780EA91E0909341
:103140008A078093890783E597E00E94820910929D
:10315000A6071092A5071092AA071092A9078FEF51
:103160009FEF9093A8078093A7079093AC07809355
:10317000AB07E0918907F0918A070280F381E02D87
:1031800083E597E009958FEF94E09093B0078093E3
:10319000AF071092BF07C0937C07C0937D07C09311
:1031A0007E07DF91CF910895789484B5826084BDC5
:1031B00084B5816084BD85B5826085BD85B581603B
:1031C00085BD80916E00816080936E0010928100B9
:1031D0008091810082608093810080918100816074
:1031E0008093810080918000816080938000809135
:1031F000B10084608093B1008091B00081608093C1
:10320000B00080917A00846080937A0080917A0087
:10321000826080937A0080917A00816080937A0046
:1032200080917A00806880937A001092C10062E0F9
:1032300084E00E94DC05E0915707F091580730E0E8
:1032400020E040E06AE083E597E009958091DE07A1
:10325000882321F083E597E00E94EE1380E00E942E
:10326000020583E597E00E94BB0EC0918E07809116
:103270008D07C80FE0915307F09154078189C81753
:1032800008F452C183E597E00E94930780E00E9412
:103290000205E0915707F091580730E020E040E048
:1032A0006BE083E597E0099580910108817E866156
:1032B0008062816080930108887121E030E011F420
:1032C00030E020E0285F3F4F81E090E002C0880FAF
:1032D000991F2A95E2F7909303088093020890E0E3
:1032E00080E0FC01E859FF4F2591349120383542A8
:1032F00009F024C1FC01E659FF4FE491E09307086F
:10330000FC01E559FF4FE491E0930808EE5FE0937C
:10331000090890910408963160F52091680084E0D6
:10332000983048F031E09E3008F430E081E001C090
:10333000880F3A95EAF7822B80936800EDE6F0E07B
:10334000983050F0EBE6F0E09E3030F0ECE6F0E044
:10335000963110F0F0E0E0E04081292F30E0983025
:1033600008F0F2C081E001C0880F9A95EAF7842B3B
:1033700080838091090890E00E94331160E081E031
:1033800090E00E94031494E0C92ED12CE12CF12C82
:1033900005E113E0C0E0D0E02FE9922E32EB832E5E
:1033A0008091F007823008F0DCC0F89485EE97E059
:1033B0000E9496126091EC077091ED078091EE07E4
:1033C0009091EF077894A70196010E94951B809138
:1033D000030190910401A0910501B0910601281705
:1033E00039074A075B07D1F02093030130930401AA
:1033F0004093050150930601C9012131310514F0B4
:1034000080E190E01816190614F081E090E09093A6
:1034100002018093010160E00E94031484E00E9495
:10342000850566246394009709F4612C20910001BE
:10343000222309F471C0892B09F06EC061E08091EC
:103440000101909102010E940314B0900101BA940D
:1034500041E150E068E770E085E093E00E94561B90
:10346000909205038B2D0E94031280930603809295
:10347000140386E0A82E83E0B82E712CF50181910B
:103480005F010E940312781A0A151B05B9F7872DF0
:103490000E9403128093150380910408863110F472
:1034A0000E94C31061E0809104080E94DC056091D5
:1034B000010860956170809104080E94AE0541E1A9
:1034C00050E065E073E081EF97E00E94710681EFC4
:1034D00097E00E94D31180910408863110F40E9475
:1034E000ED1060E0809104080E94DC0580910108E5
:1034F00080FD05C061E0809104080E94AE0568EE81
:1035000073E080E090E00E943D0660E08091010160
:10351000909102010E94031460920001209709F427
:103520003FCF0E9400003CCF8091DE07882321F02E
:1035300083E597E00E94EE138C2F91CE04968031A4
:10354000910509F0CECEE5CE9E3040F428503109E9
:1035500081E001C0880F2A95EAF709CF2E50310982
:10356000F7CFF89427CFCF93DF9382E991E0909340
:10357000F2078093F1072091040842E0283030F0F0
:1035800041E082EF820F883008F040E030E06AE0EE
:10359000469FD0011124AB5CB84F842F042E000C41
:1035A000990BC5E04C9FA0011124632F032E000C42
:1035B000770BEC91E617170609F00CF44CC0FA01F2
:1035C000E60FF71FEE0FFF1FE15DF84F0190F0814E
:1035D000E02DEA53F14111F03F5FE7CF37FD3BC0EB
:1035E0004C914150550B6417750751F14AE0489FC3
:1035F000E001499FD00D1124CB5CD84F65E0689F56
:10360000A001699F500D1124E32FF0E06881615003
:10361000770BE617F707A4F4DF011196A40FB51F87
:10362000AA0FBB1FA15DB84F6D917C91E40FF51FF0
:10363000EE0FFF1FE15DF84F718360833F5FE4CFC2
:103640003AE0389FF001399FF00D1124E15DF84F09
:103650008681815086832631C0F4EDE6F0E0283083
:1036600030F0EBE6F0E02E3010F0ECE6F0E03081E8
:10367000422F50E0283060F481E090E001C0880FD4
:103680002A95EAF7809583238083DF91CF9108956F
:103690002E3048F44850510981E090E001C0880F75
:1036A0004A95EAF7EFCF4E505109F6CFFB01DC0106
:1036B00002C005900D9241505040D8F7089597FBF5
:1036C000072E16F4009407D077FD09D00E94BF1B87
:1036D00007FC05D03EF4909581959F4F0895709515
:1036E00061957F4F0895A1E21A2EAA1BBB1BFD0115
:1036F0000DC0AA1FBB1FEE1FFF1FA217B307E407D1
:10370000F50720F0A21BB30BE40BF50B661F771F28
:10371000881F991F1A9469F7609570958095909508
:103720009B01AC01BD01CF010895052E97FB1EF44E
:1037300000940E94AC1B57FD07D00E94731B07FC2E
:1037400003D04EF40C94AC1B5095409530952195C8
:103750003F4F4F4F5F4F08959095809570956195BD
:103760007F4F8F4F9F4F08950E94D91BA59F900DAB
:10377000B49F900DA49F800D911D11240895AA1B44
:10378000BB1B51E107C0AA1FBB1FA617B70710F04C
:10379000A61BB70B881F991F5A95A9F7809590957E
:1037A000BC01CD010895EE0FFF1F0590F491E02DAF
:1037B0000994A29FB001B39FC001A39F700D811D0A
:1037C0001124911DB29F700D811D1124911D08952A
:1037D000DC0101C06D9341505040E0F7089514E0C2
:1037E000CBE5D4E004C0FE010E94D31B2196CC356A
:0837F000D107C9F7F894FFCFDF
:1037F80001010019FCFFFF700670061815A015C01E
:1038080019FF1815A115C819FF1815AE19FF1815B5
:10381800AF19FF1815AE15D5168015A8163F15D384
:1038280016001540158D16141520160015A115C87B
:1038380015DA1612158116CF15D916F115DB1640B3
:10384800152E15A415A619FF0001140A6464323256
:1038580000093D000004289610080202800040007C
:10386800000000005D073007E51206072907160764
:1038780007070000000043121B12E512E4120000C3
:103888000000E8127106E512D311DB11E911C0112D
:1038980082090D0A720953425553204368616E6EBE
:1038A800656C204D61707065720053656C6563745A
:1038B800204368616E6E656C3A20004D61707069D6
:1038C8006E672E2E2E00507265737320746F204D14
:0438D800617000001B
:00000001FF
